:020000040800F2
:1000000008080020F101000819640008A11A00087E
:10001000B5620008FD1300081F86000800000000FC
:10002000000000000000000000000000A5680008BB
:100030000F14000800000000FD650008D5750008D9
:100040000B0200080B0200080B0200080B0200085C
:100050000B0200080B0200080B0200080B0200084C
:100060000B0200080B0200080B0200080B0200083C
:100070000B0200080B0200080B0200080B0200082C
:100080000B0200080B0200080B0200080B0200081C
:100090000B0200080B0200080B0200080B0200080C
:1000A0000B0200080B0200080B0200080B020008FC
:1000B0000B0200080B020008F57800080B0200088C
:1000C0000B0200080B0200080B0200080B020008DC
:1000D0000B020008ED8300080B0200080B02000869
:1000E0000B0200080B0200080B0200080B020008BC
:1000F0000B0200080B0200080B0200080B020008AC
:100100000B0200080B020008857A00080B020008A9
:100110000B0200080B0200080B0200080B0200088B
:100120000B0200080B0200080B0200080B0200087B
:1001300000F002F800F04DF80AA090E8000C8244AC
:100140008344AAF10107DA4501D100F042F8AFF289
:10015000090EBAE80F0013F0010F18BFFB1A43F0A5
:100160000103184704B6000024B60000103A24BF6B
:1001700078C878C1FAD8520724BF30C830C144BF0C
:1001800004680C607047000000230024002500264E
:10019000103A28BF78C1FBD8520728BF30C148BFEA
:1001A0000B607047662909F09E86642900F09680EE
:1001B000782900F0CF80002070471FB500F090FB39
:1001C00004000020002108F099FEE0601FBD10B57A
:1001D00010BD00F085FC1146FFF7EFFF08F016FB9D
:1001E00000F0A3FC03B4FFF7F2FF03BC08F02DFA04
:1001F0000948804709480047FEE7FEE7FEE7FEE7BB
:10020000FEE7FEE7FEE7FEE7FEE7FEE704480549F6
:10021000054A064B70470000D975000831010008F7
:10022000080200200808002008040020080400201C
:10023000704700000FB4044910B503AA029800F0FB
:100240003DFB10BC5DF814FB680000200FB41CB52A
:10025000074B06AA7B4469460090059800F015FB01
:100260000020694600F024FB1CBC5DF814FB000074
:10027000590600002DE9F0410E4604460020206298
:100280002046E168884730B3252805D0D4E901210C
:100290009047206A401CF2E7E16820460027884723
:1002A000050018D0A5F14100192802D820354FF4D7
:1002B00000673246294620462760FFF773FF40B1AA
:1002C000012804D0F61D26F007060836D8E7361DAB
:1002D000D6E72846DAE7206ABDE8F0812DE9F0414B
:1002E0000646002410687529314616A510D0AFF3D4
:1002F0000080002802DA404213A507E031688A072F
:1003000001D512A502E0490704D511A5012401E099
:10031000AFF3008000210A2206F1240709E0B0FBB8
:10032000F2FCB0FBF2F302FB1C00303078541846AC
:10033000491C0028F3D123462A463046BDE8F04147
:1003400000F038B8000000002D0000002B00000075
:100350002000000070B504460D4621461068AFF33A
:1003600000802188090502D50F4A7A4402E00E4A2E
:100370007A440E32002104F1240305E000F00F0658
:100380000009965D5E54491C0028F7D120780023AF
:10039000000704D5702D02D009B102231132204686
:1003A000BDE8704000F006B83CB3000070477047ED
:1003B000704770472DE9F0470D469946924604462E
:1003C00000F124080168880604D5E06921F01001D5
:1003D000216000E00120A84201DD471B00E000276A
:1003E000A1697A1902EB0900081AA0612078C006F9
:1003F00002D42046AFF30080002608E0D4E90121B2
:100400001AF806009047206A401C761C20624E4570
:10041000F4DB2078C0060AD52046AFF3008006E062
:10042000D4E9012130209047206A401C2062381E08
:10043000A7F10107F4DC07E0D4E9012118F8050071
:100440009047206A401C2062281EA5F10105F3DCBC
:100450002046AFF300802078000602D50220BDE8D8
:10046000F0870120FBE770472DE9FF4F0C461E4641
:100470004FF0FF378BB0D2E90001DDF860800A90C1
:100480008A46C1F30A5505B93D46002108464FF09A
:100490000000BAF1000F00F4400005DA00EB800024
:1004A0004FF4400101EA50004FEA9059B9F1010FB1
:1004B00000DDB9460A9850EA4A000ED044F61050C2
:1004C000A5F2FF3545432F14B8F1000F1ED0754239
:1004D000291E1EDDC9F100021CE0B8F1010F4FF02A
:1004E000000001D0302103E0F24305E02154401C1C
:1004F000B042FBDB30460022002121540B99C1F8A9
:100500000880C1E900200FB0BDE8F08FBD1B6D1C55
:10051000DEE74A4600DA694206A800F06BFA06AB4D
:1005200093E8070003AB83E8070050460A9900F000
:1005300043FB8DE80700A0F500501F38009003989A
:10054000002D09DD42F21F014A46084403A9039029
:10055000684600F0A2FD08E0A0F500504A461F38AA
:1005600003A90390684600F0ACFD8DE80700000485
:10057000000C03D04FF0FF30410800E01046B8F106
:10058000000F03D00022009215461EE0751E05D410
:1005900000F0AAF9303262556D1EF9D5B34601223A
:1005A000084302D000227F1C04E02078302801D1CB
:1005B00000227F1E002A099786D01DE0112D07DA40
:1005C00000F092F9303262556D1C50EA0102F5D10B
:1005D000084302D00098C8B10EE00021681E05E073
:1005E000235C625C63542254401E491C8142F7DB49
:1005F000AB46A81B401E0990002004F80B000B9886
:10060000099AC0F80880C0E9002B7CE711264FF05A
:10061000000859E72DE9F04F88460446D21D22F024
:10062000070191B0D1E90001CDE90A0107F0F9FF16
:1006300002460B98C00F01D02D2007E020688107EB
:1006400001D52B2002E0202101EAC000032A0990F5
:1006500001D0072A05DB03464146204600F08AF90F
:100660000BE12078800601D5E06900E00620B8F1B2
:10067000650F814606D0B8F1660F18D0B8F1670F44
:1006800070D131E00020B9F1110F009001DB11238E
:1006900001E009F101030AAA01A90CA8FFF7E4FE91
:1006A000DDE90C70002609F10105834647E00120D1
:1006B0004B4600904FF000470AAA01A90CA8FFF78B
:1006C000D3FEDDE90DB00C995D46002610B909F1A5
:1006D00001000D18B9EB050003D4C0F1FF3609F194
:1006E0000105A5EB09002BE0B9F1010F01DA4FF08C
:1006F00001090020B9F1110F0090484601DD1123D6
:1007000000E003460AAA01A90CA8FFF7ADFEDDE947
:100710000C704D4600268346207800070AD4AB456E
:1007200000DA5D4601A8012D04DD411911F8011C14
:10073000302907D04F4502DA17F1040F04DA0120FF
:1007400082460FE06D1EEEE7002F02DCED1B3E44FB
:1007500003E0781CA84200DD7D1CB81B00F1010AF3
:100760004FF000472078000703D4AA4501DB4FF083
:10077000FF3A0021B7F1004F0DF143088DF8431007
:1007800024D002202B23002F01DA7F422D230A21BF
:10079000021EA0F1010000DC5FB197FBF1FC97FBAA
:1007A000F1F201FB1C7C17460CF1300C08F801CD6E
:1007B000EEE7A8F1010003702188090501D5452164
:1007C00000E06521A0F1010800F8011C09980FA9BB
:1007D000A1EB0807FF1D00B10120411901EBEA70F0
:1007E000A1693844081A401EA0612078C00602D4CE
:1007F0002046AFF30080099828B1D4E90121904741
:10080000206A401C20622078C00622D52046AFF323
:1008100000801EE0002E04DBB34502DD01A8805DF0
:1008200000E03020D4E901219047206A401C20627A
:10083000761CAAF101005FEA000A0AD100F050F824
:10084000C0680168405CD4E901219047206A401CDF
:100850002062281EA5F10105DCDC07E0D4E90121B6
:1008600018F8010B9047206A401C2062381EA7F13F
:100870000107F3DC2046AFF30080032011B043E60C
:1008800001694A1C02610878704700B58FB0CDE954
:1008900001310021059105497944CDE90310114644
:1008A0006846FFF7E7FC0FB000BD0000E5FFFFFF63
:1008B0000A6802F8010B0A6070470000074B70B528
:1008C0000D467B44FFF7E1FF0446284600F000F99F
:1008D00010B14FF0FF3070BD204670BD2B7F00007F
:1008E00000487047C401002030B5B0F10A024FEA59
:1008F000900E71F100034EEA817EB0EB0E0061EBC9
:1009000091014FEA101E4EEA017E10EB0E0041EB02
:1009100011114FEA102E4EEA016E10EB0E0041EB62
:1009200011214FEA104E4EEA014E10EB0E0041EB42
:100930001141401841F100014FEAD00040EA4170F6
:100940004FEAD10110EB80054FEA810444EA90742C
:1009500044EB01046D1944EB0404521BA3414FF016
:10096000000348BF0A3200D530BD401C41F10001F0
:1009700030BD00002DE9F0411F4604460326016802
:10098000072A01F4006004DB08B116A505E016A5EE
:1009900003E008B115A500E015A521F010002060C6
:1009A000A069C01EA0610FB1401EA0612046AFF338
:1009B00000804FB1D4E9012138469047206A401C9D
:1009C0002062C01C206206E0206AFAE7D4E9012117
:1009D00015F8010B9047761EF8D22046AFF3008041
:1009E000BDE8F0814E414E006E616E00494E4600FA
:1009F000696E66002DE9F047814616468AB0334895
:100A000078440DC88DE80D0030487844801C03AC54
:100A10000DC884E80D0041F69B300844372190FB57
:100A2000F1F290FBF1F5A5F1800501FB12041B3CEE
:100A300002D56442012000E00020DFF890A080464B
:100A40000027FA44AAF1BE0A0DE0E00709D03246B9
:100A5000684607EB47010AEB810100F032FB8DE8A5
:100A6000070064107F1C002CEFD1184F7F44AC3F6F
:100A700018E0E80714D007EB04100DF1180A90E80D
:100A80000E008AE80E00C068F04201D19819089063
:100A9000324606A903A800F014FB03AB83E8070065
:100AA0006D10641C002DE4D132466946B8F1000F88
:100AB00003A802D000F0F1FA01E000F002FBC9E95E
:100AC0000001C9F808200AB0BDE8F0874CAD00006D
:100AD000007B00F08000704700487047A4010020B0
:100AE0007546FFF7F9FFAE4605006946534620F00C
:100AF0000700854618B020B5FFF788FBBDE8204009
:100B00004FF000064FF000074FF000084FF0000BC9
:100B100021F00701AC46ACE8C009ACE8C009ACE87C
:100B2000C009ACE8C0098D4670470446AFF30080A9
:100B30002046FFF757FB00004FF0013C50F8042B14
:100B400051F8043B9A4221D1A2EB0C03934313EAE0
:100B5000CC1317D150F8042B51F8043B9A4215D10D
:100B6000A2EB0C03934313EACC130BD150F8042BE4
:100B700051F8043B9A4209D1A2EB0C03934313EAC8
:100B8000CC13DBD04FF00000704700BFD01A01BA81
:100B9000B1FA81F101F0180122FA01F0CB40C1F164
:100BA0002001DBB2C0B2C01A2CFA01F3D11A914372
:100BB00011EAC311E6D170475FEA400C08BF91F01B
:100BC000000F4FEA8C234FEAC12243EA51514FEA0A
:100BD0001C5018BF00F5F0404FEA300018BF41F03C
:100BE00000415FEA6C5C00F02980BCF1FF3F08BF68
:100BF00040F080407047130C06BF12044FF0100CF9
:100C00004FF0000C130E04BF12020CF1080C130F6E
:100C100004BF12010CF1040C930F04BF92000CF1FD
:100C2000020CD30F04BF52000CF1010C11464FF01F
:100C30000002A0F11F00A0EB0C00704711F0004F64
:100C400008BF704731F000413FF4D5AF0B0C06BF31
:100C500009044FF0100C4FF0000C0B0E04BF0902FA
:100C60000CF1080C0B0F04BF09010CF1040C8B0FE5
:100C700004BF89000CF1020CCB0F04BF49000CF13A
:100C8000010CCCF12003A0EB0C0022FA03F302FAD2
:100C90000CF241EA030100F10100704720F07F4CA3
:100CA00080EA030023F07F47ACEB070303F57C5396
:100CB00000F0004003F1FF032DE980494FEA154B96
:100CC00009B44FEA144325EA0B4E24EA03480FF215
:100CD000042606EB132749083E785FEA320203FB3D
:100CE0000667C7F5000707FB06F64FEA54374FEAD9
:100CF000D64606F1020607FB066CCCF1005C4FEA13
:100D00001C472CEA074C07FB06F40CFB06F504EB2A
:100D100015464FEA961634BF00204FF000404FEAC8
:100D2000D13706FB07FC4FEA1C4C0CFB0BF7D21B20
:100D300003FB0CF761EB07010CFB0EF7B0EB074070
:100D400072EB17420CFB08F734BFA2EB0742B2EB81
:100D5000074261EB17414FEA0C444FEA910706FB4B
:100D600007FC4FEA1C4C0CFB0BF7B0EBC74072EBD7
:100D7000573203FB0CF734BFA2EBC742B2EBC742BA
:100D800061EB57310CFB0EF7B0EBC70072EB5772FB
:100D90000CFB08F734BFA2EBC702B2EBC70261EB52
:100DA0005771039F4FEA816141EA921104EBCC0431
:100DB0004FEAD1374FEA826206FB07FC42EA901203
:100DC0004FEA80604FEA1C4C0CFB0BF7D21B03FB75
:100DD0000CF761EB07010CFB0EF7B0EB074072EB71
:100DE00017420CFB08F734BFA2EB0742B2EB0742F5
:100DF00061EB17414FEA8C554FEA910704EB9C24B5
:100E000006FB07FC4FEA1C4C0CFB0BF7B0EBC74092
:100E100072EB573203FB0CF734BFA2EBC742B2EBC5
:100E2000C74261EB57310CFB0EF7B0EBC70072EB1A
:100E300057720CFB08F734BFA2EBC702B2EBC70234
:100E400061EB577115EB4C254FEA816141EA921134
:100E50004FEA82624FEAD13742EA901206FB07FC62
:100E600044F100044FEA80604FEA1C4C0CFB0BF786
:100E7000D21B03FB0CF761EB07010CFB0EF7B0EB89
:100E8000074072EB17420CFB08F734BFA2EB074296
:100E9000B2EB074261EB174115EB1C154FEA8131AC
:100EA00041EA92414FEA823242EA90424FEA803070
:100EB0004FEA0C7644F1000448EA03434EEA0B483B
:100EC0004FF0000EB2EB080C71EB030724BF624633
:100ED00039464EEB0E0E4FF0000B001852414941BF
:100EE0004BEB0B0BB2EB080C71EB03077BF1000B28
:100EF00024BF624639464EEB0E0E4FF0000B001831
:100F0000524149414BEB0B0BB2EB080C71EB030761
:100F10007BF1000B24BF624639464EEB0E0E51EAC0
:100F2000020718BF46F0010616EB0E7655F10002D7
:100F300054F1000103D5BDE88901BDE80088BDE892
:100F40008901BDE80048B619524141EB0101A3F106
:100F50000103704780807F7E7D7C7B7A797877760D
:100F600076757473727171706F6E6E6D6C6C6B6A86
:100F70006A69686867666665646463636261616024
:100F8000605F5F5E5E5D5D5C5C5B5B5A5A595958A1
:100F9000585757565655555554545353525252510B
:100FA000515050504F4F4F4E4E4D4D4D4C4C4C4B61
:100FB0004B4B4A4A4A4949494848484747474746A8
:100FC00046464545454444444443434343424242E4
:100FD00042414141002B26D4770021D01CB54FEA75
:100FE000370703B44FF010004FF010014FF000002E
:100FF0000FBCBDE810400BF1010BBBF1010F08BFA6
:101000005FEA170722BF12F1010211F101014FF04F
:10101000004143F1000300F0004043EA0000704744
:10102000F9D35708DAE746EA064613F1400F4FEACC
:1010300016461FDD13F1200FDFBF16430A460021BD
:1010400020335B42C8D0C3F1200746EA064602FAC5
:1010500007F74FEA164646EA0706C3F1200722FAC9
:1010600003F201FA07F721FA03F14FF0000342EA15
:101070000702B1E746EA020646EA06464FEA164686
:1010800046EA0106BCBF46EA0646360C4FF00003AE
:101090004FF000024FF000019EE72DE9C048934653
:1010A00030B491E8380007C831EA400C48BF34EA50
:1010B000430C03D5FFF7F2FDFFF78CFFF0BCBDE852
:1010C00000882DE9C048934630B491E8380007C83D
:1010D00010F0804F08BF13F0804F03D100F005F8E7
:1010E000FFF778FFF0BCBDE8008820F07F4780EA7A
:1010F000030023F07F4C07EB0C03A3F57C5300F0B7
:101100000040A3F1FE0392F0000F00F0B38095F0D1
:10111000000F00F077802DE901494FEA11404FEAB6
:10112000144621EA004800FB06FC24EA064708FBB7
:1011300006F607FB08F800FB07F718EB06484CEB30
:10114000164C4FEA124B18EB07484FEA15464CEB8A
:10115000174022EA0B4E0BFB06FC25EA06470EFB66
:1011600006F607FB0EFE0BFB07F71EEB064E4CEBDD
:10117000164C4FF000061EEB074E4CEB174B18EBCE
:101180000B0840F1000018EB0E0B58EB000840F183
:1011900000008F1A4FF000013CBFC943661B14BF0B
:1011A000B5EB040C00213CBFC943F61B4FEA1744C2
:1011B0004EEA8E0E27EA04454FEA1C4704FB0762FD
:1011C0002CEA074C05FB07F70CFB05F604FB0CFCAF
:1011D00016EB074642EB174216EB0C4642EB1C425D
:1011E0001BEB060658EB0202414146EA9E0601D57A
:1011F000BDE80189B619524141EB0101A3F1010398
:10120000BDE801894FEA14454FEA114724EA054633
:1012100021EA074C05FB07F406FB07F70CFB06F178
:1012200005FB0CFC11EB074144EB17444FEA124756
:1012300011EB0C4144EB1C4422EA074C05FB07F27E
:1012400006FB07F70CFB06F605FB0CFC16EB074646
:1012500042EB174216EB0C4642EB1C456A1854F160
:10126000000148BF7047B619524141EB0101A3F19B
:101270000103704795F0000F37D04FEA11424FEA53
:10128000144721EA024624EA074C02FB07F106FB59
:1012900007F70CFB06F402FB0CFC14EB074441EBD4
:1012A00017414FEA154714EB0C4441EB1C4125EA6A
:1012B000074C02FB07F506FB07F70CFB06F602FBE3
:1012C0000CFC16EB074645EB174516EB0C4645EBB9
:1012D0001C42121951F1000148BF7047B619524122
:1012E00041EB0101A3F1010370474FEA14454FEAB6
:1012F000114724EA054621EA074C05FB07F106FBE6
:1013000007F70CFB06F24FF0000605FB0CFC12EB96
:10131000074241EB174112EB0C4251EB1C4148BF15
:101320007047921841EB0101A3F1010370470000DF
:1013300010B50446D4B1032000F09AF81B490860A8
:101340000B2000F095F81A490860132000F090F87F
:10135000184908601848008883B208460268144893
:1013600001681248006805F0DBF81DE013480068CA
:1013700013490860232000F07BF80C4908602B20FB
:1013800000F076F80A490860332000F071F8094946
:1013900008600948008883B208460268044801686A
:1013A0000248006805F0BCF810BD000010000020E5
:1013B000140000201800002004000020200000205D
:1013C0000C00002008B50121082005F0F1F94FF4C8
:1013D0008070ADF8000010208DF8030003208DF818
:1013E00002006946044800F020FA4FF48071024878
:1013F00000F0A6FA08BD0000000C014000BFFEE7A7
:101400000146A1F13000002800DA00207047704743
:1014100010B500F06FFB10BD70B50446002600F05B
:1014200017FC2546E11704EB11610912A02202EB1B
:101430004101C8B200F0D8FB00F056FCE11704EB04
:1014400011610912A4EB0121C8B200F0CDFB00F03C
:101450004BFC00F0FDFBA12000F0C6FB00F044FCBB
:10146000002000F089FB064600F018FC304670BDF5
:101470002DE9F0479AB08146002408E009EB040109
:1014800088B2FFF7C9FF303818A90855641C082C2A
:10149000F4DB9DF8670007F0F9FF0546364A374B45
:1014A00008F044F8CDE914019DF8660007F0EEFF5E
:1014B0000546334A334B08F039F8CDE910019DF861
:1014C000650007F0E3FF05462F4A304B08F02EF881
:1014D000CDE90C019DF8640007F0D8FF05462C4AC1
:1014E0002C4B08F023F8CDE908019DF8630007F0C4
:1014F000CDFF0546284A294B08F018F8CDE904012C
:101500009DF8620007F0C2FF0746254A254B08F008
:101510000DF805460E469DF8600007F0B7FF2A4615
:101520003346CDE9000107F031FDCDE90201DDE9E7
:10153000042307F02BFDCDE90601DDE9082307F0C0
:1015400025FDCDE90A01DDE90C2307F01FFDCDE9FA
:101550000E01DDE9102307F019FDCDE91201DDE9E7
:10156000142307F013FDCDE9160107F0DDFC8246D8
:1015700050461AB0BDE8F0878DEDB5A0F7C6B03E75
:10158000F168E388B5F8E43E2D431CEBE2361A3FE0
:10159000FCA9F1D24D62503F7B14AE47E17A843F03
:1015A0009A9999999999B93F70B504460E4600F0F9
:1015B0004FFB2546E11704EB11610912A02202EB53
:1015C0004101C8B200F010FB00F08EFBE11704EB04
:1015D00011610912A4EB0121C8B200F005FB00F073
:1015E00083FB304600F000FB00F07EFB00F056FB72
:1015F0000A2007F04FF870BD2DE9FC4105460E4664
:10160000304608F057FA0A2190FBF1F201FB120074
:101610003030C0B28DF800002E208DF80100364920
:10162000304608F0E3FA074608F044FA0A2190FB36
:10163000F1F201FB12003030C0B28DF802002F49E8
:10164000304608F0D3FA074608F034FA0A2190FB36
:10165000F1F201FB12003030C0B28DF803002849CE
:10166000304608F0C3FA074608F024FA0A2190FB36
:10167000F1F201FB12003030C0B28DF804002149B4
:10168000304608F0B3FA074608F014FA0A2190FB36
:10169000F1F201FB12003030C0B28DF805001A499A
:1016A000304608F0A3FA074608F004FA0A2190FB36
:1016B000F1F201FB12003030C0B28DF80600134980
:1016C000304608F093FA074608F0F4F90A2190FB37
:1016D000F1F201FB12003030C0B28DF80700002497
:1016E00006E01DF804102A1990B2FFF75DFF641C94
:1016F000082CF6DBBDE8FC81000020410000C84258
:1017000000007A4400401C460050C347002474493E
:1017100051B18200A2F1C042126842F0010382007E
:10172000A2F1C042136009E08200A2F1C042126837
:10173000034B1A408300A3F1C0431A6070470000B6
:10174000FEFF0F00D0E901121143C2681143026984
:1017500011434269114382691143C2691143026A0C
:101760001143426A1143826A1143C26A1143026BF8
:10177000114302689200A2F1C042116081680829F9
:101780000BD101688900A1F1C041096841F0400214
:1017900001688900A1F1C0410A60416B0968426B90
:1017A000526841EA0211426B926841EA0221426B9F
:1017B000928941EA0241426B128A41EA0251426B2C
:1017C000127D41EA0261426B926911430268521C28
:1017D0009200A2F1C0421160C16AB1F5804F1BD1E5
:1017E000816B0968826B526841EA0211826B9268D0
:1017F00041EA0221826B128A41EA0251826B127D18
:1018000041EA0261826B9269114302689200A2F17F
:10181000C042C2F8041107E06FF07042016889000D
:10182000A1F1C041C1F8042170472DE9F041024601
:1018300000250026002000230024002791F803C083
:101840000CF00F0591F803C00CF0100CBCF1000F68
:1018500003D091F802C04CEA050591F800C0BCF134
:10186000000F31D0146800202BE04FF0010C0CFA6F
:1018700000F3B1F800C00CEA03069E4220D18300B9
:101880004FF00F0C0CFA03F7BC4305FA03FC4CEACB
:10189000040491F803C0BCF1280F06D14FF0010CED
:1018A0000CFA00FCC2F814C00AE091F803C0BCF1C5
:1018B000480F05D14FF0010C0CFA00FCC2F810C023
:1018C000401C0828D1D31460B1F800C0BCF1FF0F50
:1018D00034DD546800202EE000F1080C4FF00108C0
:1018E00008FA0CF3B1F800C00CEA03069E4221D1BD
:1018F00083004FF00F0C0CFA03F7BC4305FA03FC0E
:101900004CEA040491F803C0BCF1280F05D100F1A2
:10191000080C08FA0CF8C2F8148091F803C0BCF166
:10192000480F07D100F1080C4FF0010808FA0CF835
:10193000C2F81080401C0828CED35460BDE8F08166
:10194000416170470161704770B50026012052491E
:1019500008605249C1F884014F49083108604F4975
:10196000C1F88C014C4870380068D1F81411084354
:101970004A49D1F8181108434849D1F81C110843C5
:10198000002877D0052006F085FE434870380068AF
:101990004249D1F8141108434049D1F818110843BD
:1019A0003E49D1F81C110843002873D000246FE091
:1019B00034B1012C12D0022C1FD0032C3AD12BE0D1
:1019C00001203549086000203449C1F884013249BA
:1019D000083108603149C1F88C012BE000202E4904
:1019E000086001202D49C1F8840100202A490831EE
:1019F00008602A49C1F88C011CE0002026490860D3
:101A00002649C1F8840101202349083108600020DB
:101A10002249C1F88C010DE000201F4908601F49D0
:101A2000C1F884011C490831086001201B49C1F834
:101A30008C0100BF00BF002510E0281D174901EBF5
:101A40008000D0F8000120B10120A8403043C6B288
:101A500003E00020A8403043C6B26D1C042DECDB2F
:101A6000AEB1012E07D0022E08D0042E09D0082EC8
:101A70000DD109E00EE0A000401C70BDA000801C4C
:101A8000FBE7A000C01CF8E7A000001DF5E7641C00
:101A9000042C8DDB0020F0E780812342008023426C
:101AA00000BFFEE710B500200F4908600F4800682E
:101AB00020F070400D4908600846006840F0405032
:101AC000086000200A49C1F89C01022006F008FEC7
:101AD000012005490860022006F002FE00200449AA
:101AE000C1F8980110BD000098812142000C01400E
:101AF0000080214208B50121082004F059FEC020D1
:101B0000ADF8000010208DF8030003208DF80200CE
:101B100069460448FFF789FEC0210248FFF712FF1B
:101B200008BD0000000C014010B500200F490860FE
:101B30000F48006820F070400D49086008460068B2
:101B400040F04050086001200A49C1F89C01022081
:101B500006F0C6FD012005490860022006F0C0FD20
:101B600000200449C1F8980110BD0000988121426D
:101B7000000C01400080214270B505460024174842
:101B8000006820F07040154908600846006840F081
:101B900000400860002616E000201149086002207D
:101BA00006F09EFD01200F49C1F898016006040E61
:101BB0000B487C38006808B1601CC4B2012006F0F4
:101BC0008FFD701CC6B2082EE6DB15B9FFF7ACFF1F
:101BD00001E0FFF767FF204670BD0000000C0140E8
:101BE000988121420080214270B504461548006862
:101BF00020F07040134908600846006840F04050EB
:101C00000860002010490860002517E0E0090E492F
:101C1000091D08606006040E022006F061FD012027
:101C20000A49C1F89801022006F05AFD0020064931
:101C30000860022006F054FD681CC5B2082DE5DBE3
:101C400070BD0000000C01409881214200802142BB
:101C500010B50F48006820F070400D490860084634
:101C6000006840F04050086001200A4908600A49B5
:101C7000C1F89801042006F033FD002005490860F2
:101C8000042006F02DFD00200349C1F8980110BD85
:101C9000000C01409C8121420080214210B50F4878
:101CA000006820F070400D4908600846006840F068
:101CB0004050086000200A4908600A49C1F89C01A8
:101CC000042006F00DFD0120054908600549C1F812
:101CD0009C01042006F004FD10BD0000000C014032
:101CE000988121420080214210B5002414480068E8
:101CF00020F07040124908600846006840F000403B
:101D0000086001200F49086006F0EAFC01200E4936
:101D1000C1F8980106F0E4FC07E0601CC4B2FA2C9C
:101D200003DDFFF7BBFF012010BD064880380068C7
:101D30000028F2D10349091F086000BFF4E7000042
:101D4000000C01409C8121420080214208B5012104
:101D5000802004F02DFD0F20ADF8000010208DF83C
:101D6000030003208DF8020069460748FFF75DFD78
:101D7000F020ADF8000028208DF8030069460248E5
:101D8000FFF753FD08BD0000001C014070B504467C
:101D9000002617480588408845431548808846F640
:101DA0000401884216D112488079012812D10020FE
:101DB0000F4988712A2048812B20888100210846FC
:101DC00004F016F801200A4988712B2048812A2046
:101DD000888103E00021084604F00AF804F058FA6C
:101DE000002602E003480480761CAE42FAD370BDA0
:101DF000CC0000200008006C10B50446002C66D111
:101E00006C498871F02008804FF4A0704880084623
:101E1000808849F2413188420BD06648808846F676
:101E20000401884205D06348808845F21031884219
:101E30001AD12C205F4908812A2048812B208881D3
:101E40000846808846F60401884205D059488088B3
:101E500045F21031884206D14FF4A07055490880F0
:101E60004FF4F0704880A1E05248808845F210514C
:101E7000884210D14FF430504E4908814FF4285019
:101E800048814FF42C5088814FF4F07008804FF453
:101E9000487048808AE04748808841F6631188424C
:101EA0000DD12C20434908812B2048812A2088818C
:101EB0004FF4F07008804FF44870488076E022209C
:101EC0003C49088120204881212088816EE0012042
:101ED000384988714FF4A0700880F0204880084687
:101EE000808849F24131884205D03248808845F2E5
:101EF0001031884207D12C202E4908812A204881A0
:101F00002B2088813FE02B48808846F604018842D8
:101F100007D12C20274908812B2048812A2088813D
:101F200031E02448808845F21051884210D14FF4A6
:101F30003050204908814FF4285048814FF42C50EC
:101F400088814FF4487008804FF4F07048801AE0A0
:101F50001848808841F6631188420DD12C2015491C
:101F600008812A2048812B2088814FF448700880FE
:101F70004FF4F070488006E022200E4908812120AD
:101F80004881202088810B48808846F604018842D9
:101F900005D00848808845F21031884206D14FF4B8
:101FA000F070044908804FF4A0704880002003F0CE
:101FB000A9FD10BDCC0000202DE9FF4F84B0814663
:101FC0008A460020039002900698A0EB0905079826
:101FD000A0EB0A06CDF80490CDF800A0002D01DD9D
:101FE000012705E00DB9002702E04FF0FF376D42F1
:101FF000002E02DD4FF0010806E016B94FF0000890
:1020000002E04FF0FF387642B54201DD2C4600E099
:1020100034464FF0000B21E0009A91B2019A90B241
:1020200000F022F80398284403900298304402906C
:102030000398A04205DD0398001B039001983844E3
:1020400001900298A04205DD0298001B02900098C2
:10205000404400900BF101001FFA80FB601C834597
:10206000DADD08B0BDE8F08F30B504460D462946EC
:10207000204603F0BDFE04F00BF902480088024937
:10208000088030BD4A0000200008006CF0B504460E
:102090000D4616461F462B46324629462046FFF778
:1020A0008BFF3B46224629462046FFF785FF3B46ED
:1020B000324639462046FFF77FFF3B4632462946E7
:1020C0003046FFF779FFF0BD30B503460C461546A4
:1020D0005A48808849F24131884205D05748808863
:1020E00045F21031884214D15449488904F0CAF8A5
:1020F000181204F0C1F8D8B204F0BEF84F4988892C
:1021000004F0C0F8201204F0B7F8E0B204F0B4F81C
:102110008CE04A48808845F21051884220D14749D6
:10212000488904F0AFF8181204F0A6F84349498929
:10213000491C88B204F0A6F8D8B204F09DF83F49D3
:10214000888904F09FF8201204F096F83B498989A9
:10215000491C88B204F096F8E0B204F08DF865E00E
:102160003648808841F66311884228D13348807907
:1021700020B932480088401EC01A83B22F494889CE
:1021800004F080F8181204F077F8D8B204F074F86C
:10219000181204F071F8D8B204F06EF82749888953
:1021A00004F070F8201204F067F8E0B204F064F86C
:1021B000201204F061F8E0B204F05EF836E01F4847
:1021C000808846F6040188421DD11C488079012888
:1021D00004D11A480088401EC01A83B217494889A2
:1021E00004F050F8181204F047F8D8B204F044F89C
:1021F0001249888904F046F8201204F03DF8E0B254
:1022000004F03AF812E00D488079012804D10B4817
:102210000088401EC01A83B208494889194604F054
:1022200041F806498889214604F03CF803480089B2
:1022300003490880881C058030BD0000CC000020C8
:10224000FE07006C2DE9FC4F05460E4617469846E2
:10225000DDF82C90002001902748808846F6040184
:10226000884229D124488079012825D1AB463546BA
:1022700021480088C01B401E86B247461E48008881
:10228000A0EB0B00401E1FFA80F800201A4988714D
:102290002A2048812B20888143463A4631462846E9
:1022A000CDF80090FFF7CEFF0120134988712B2055
:1022B00048812A2088811CE0781B401C80B2019054
:1022C000344614E02146284603F092FD03F0E0FF77
:1022D0004FF0000A06E00948A0F800900AF101005A
:1022E0001FFA80FA01988245F5DB601C84B24445F0
:1022F000E8DDBDE8FC8F0000CC0000200008006C89
:1023000000B59FB00121080204F032FA01214FF418
:10231000B47004F04DFA0120ADF8780010208DF86B
:102320007B0003208DF87A001EA9FE48FFF77DFA96
:102330004CF23370ADF8780018208DF87B00032044
:102340008DF87A001EA9F848FFF76FFA4FF68070F3
:10235000ADF8780018208DF87B0003208DF87A0006
:102360001EA9F248FFF761FA41F20100ADF87800CA
:1023700018208DF87B0003208DF87A001EA9EC4808
:10238000FFF753FA01200890002009900F200A90CF
:1023900000200B900C900D900E9001900290032065
:1023A00003900020049005900690079006200F905F
:1023B0000020109011901020129000201390159082
:1023C0001490169017904FF4805018900020199098
:1023D0004FF480401A9000201B9008A81C9001A880
:1023E0001D900FA8FFF7AEF901210620FFF790F925
:1023F000322006F04FF9002003F04EFBCD498880D3
:1024000008468088FF280ADB084680884FF6FF715F
:10241000884204D0C7488088B0F5134F7ED1D320BE
:1024200003F030FF03F02EFBC249888003F02AFB43
:10243000C049888003F026FBBE4988800846808812
:102440004FF6FF7101EA0020BA49888003F01AFBB9
:10245000B84989880843B74988800846808849F286
:10246000413188425AD0BF2003F00CFF03F00AFB31
:10247000B049888003F006FBAE49888003F002FB78
:10248000AC49888003F0FEFAAA4988800846808813
:102490004FF6FF7101EA0020A649888003F0F2FAA6
:1024A000A44989880843A34988800846808846F65D
:1024B000040188427AD0D42003F0E4FE03F0E2FA6B
:1024C0009C49888003F0DEFA9A49888003F0DAFAA2
:1024D00098498880084680884FF6FF7101EA0020FD
:1024E0009449888003F0CEFA92498988084391493B
:1024F00088800846808845F21031884256D04FF4D3
:102500005A4003F0BFFE03F0BDFA8A4988804FF4B9
:102510005B4003F0B7FE03F0B5FA00E046E0854902
:102520008880084680884FF6FF7101EA00208149C3
:1025300088804FF45C4003F0A5FE03F0A3FA7D49C8
:10254000898808437B49888008468088B0F5004F19
:1025500002D145F2105088807648808845F21051AB
:10256000884223D0A12003F08DFE03F08BFA71493D
:10257000888003F087FA6F498880084680884FF684
:10258000FF7101EA00206B49888003F07BFA6949FA
:1025900089880843674988800846808845F26171C8
:1025A000884203D141F6631062498880614881887E
:1025B00061A0FDF73FFE5F48808849F241318842C3
:1025C0007ED1CF2003F05EFE002003F055FEC12037
:1025D00003F052FE302003F04FFEED2003F052FED8
:1025E000642003F049FE032003F046FE122003F0AE
:1025F00043FE812003F040FEE82003F043FE8520E7
:1026000003F03AFE102003F037FE7A2003F034FE88
:10261000CB2003F037FE392003F02EFE2C2003F0F0
:102620002BFE002003F028FE342003F025FE0220BC
:1026300003F022FEF72003F025FE202003F01CFE0D
:10264000EA2003F01FFE002003F016FE002003F036
:1026500013FEC02003F016FE1B2003F00DFEC12068
:1026600003F010FE012003F007FEC52003F00AFE70
:10267000302003F001FE302003F0FEFDC72003F000
:1026800001FEB72003F0F8FD362003F0FBFD4820E3
:1026900003F0F2FD3A2003F0F5FD552003F0ECFDC8
:1026A000B12003F0EFFD002003F0E6FD1A2003F057
:1026B000E3FDB62003F0E6FD0A2003F0DDFD00E0B7
:1026C000AAE0A22003F0D8FDF22003F0DBFD0020F9
:1026D00003F0D2FD262003F0D5FD012003F0CCFD50
:1026E000E02003F0CFFD0F2003F0C6FD2A2003F009
:1026F000C3FD282003F0C0FD082003F0BDFD0E201F
:1027000003F0BAFD082003F0B7FD542003F0B4FD38
:10271000A92003F0B1FD432003F0AEFD0A2003F031
:10272000ABFD11E0000C0140001401400018014015
:1027300000200140CC000020204C43442049443A72
:1027400025780D0A000000000F2003F095FD002001
:1027500003F092FD002003F08FFD002003F08CFDBC
:10276000002003F089FDE12003F08CFD002003F040
:1027700083FD152003F080FD172003F07DFD072069
:1027800003F07AFD112003F077FD062003F074FDBD
:102790002B2003F071FD562003F06EFD3C2003F06A
:1027A0006BFD052003F068FD102003F065FD0F2090
:1027B00003F062FD3F2003F05FFD3F2003F05CFD6E
:1027C0000F2003F059FD2B2003F05CFD002003F0E7
:1027D00053FD002003F050FD012003F04DFD3F208C
:1027E00003F04AFD2A2003F04DFD002003F044FDD4
:1027F000002003F041FD002003F03EFDEF2003F038
:102800003BFD112003F03EFD782005F043FF292019
:1028100003F038FD03F01AB9FE48808846F604013B
:1028200088427CD1112003F02DFD142005F032FFE9
:10283000D02003F027FD072003F01EFD422003F007
:102840001BFD1D2003F018FDD12003F01BFD00200F
:1028500003F012FD1A2003F00FFD092003F00CFD18
:10286000D22003F00FFD012003F006FD222003F02B
:1028700003FDC02003F006FD102003F0FDFC3B200B
:1028800003F0FAFC002003F0F7FC022003F0F4FC54
:10289000112003F0F1FCC52003F0F4FC032003F049
:1028A000EBFCC82003F0EEFC002003F0E5FC252043
:1028B00003F0E2FC212003F0DFFC052003F0DCFC48
:1028C000002003F0D9FC0A2003F0D6FC652003F0B9
:1028D000D3FC252003F0D0FC772003F0CDFC502062
:1028E00003F0CAFC0F2003F0C7FC002003F0C4FC77
:1028F000F82003F0C7FC012003F0BEFCFE2003F02B
:10290000C1FC002003F0B8FC022003F0B5FC20203D
:1029100003F0B8FC362003F0B5FC082000E02CE002
:1029200003F0AAFC3A2003F0ADFC552003F0A4FC10
:102930002B2003F0A7FC002003F09EFC002003F0F6
:102940009BFC012003F098FC3F2003F095FC2A201B
:1029500003F098FC002003F08FFC002003F08CFCB7
:10296000012003F089FCDF2003F086FC782005F0CD
:1029700091FE292003F086FC4CE7A648808845F2AA
:102980001031884240F07C87ED2003F07BFC012071
:1029900003F072FCFE2003F06FFCEE2003F072FCEB
:1029A000DE2003F069FC212003F066FCF12003F037
:1029B00069FC012003F060FCDF2003F063FC1020C1
:1029C00003F05AFCC42003F05DFC8F2003F054FC9C
:1029D000C62003F057FC002003F04EFCE22003F079
:1029E0004BFCE22003F048FCE22003F045FCBF2052
:1029F00003F048FCAA2003F03FFCB02003F042FCA7
:102A00000D2003F039FC002003F036FC0D2003F00C
:102A100033FC002003F030FC112003F02DFC0020DB
:102A200003F02AFC192003F027FC002003F024FC0B
:102A3000212003F021FC002003F01EFC2D2003F0D8
:102A40001BFC002003F018FC3D2003F015FC0020C7
:102A500003F012FC5D2003F00FFC002003F00CFCDF
:102A60005D2003F009FC002003F006FCB12003F018
:102A700009FC802003F000FC002003F0FDFB8B200C
:102A800003F0FAFB002003F0F7FB962003F0F4FBC1
:102A9000002003F0F1FBB22003F0F4FB002003F070
:102AA000EBFB002003F0E8FB022003F0E5FB002035
:102AB00003F0E2FB032003F0DFFB002003F0DCFB6C
:102AC000B32003F0DFFB002003F0D6FB002003F06F
:102AD000D3FB002003F0D0FB002003F0CDFB00204F
:102AE00003F0CAFB002003F0C7FB002003F0C4FB87
:102AF000002003F0C1FB002003F0BEFB002003F028
:102B0000BBFB002003F0B8FB002003F0B5FB002066
:102B100003F0B2FB002003F0AFFB002003F0ACFB9E
:102B2000002003F0A9FB002003F0A6FB002003F027
:102B3000A3FB002003F0A0FB002003F09DFB00207E
:102B400003F09AFB002003F097FB002003F094FBB6
:102B5000002003F091FBB42003F094FB8B2003F0E2
:102B60008BFB002003F088FB962003F085FB002000
:102B700003F082FBA12003F07FFB002003F07CFB2D
:102B8000B52003F07FFB022003F076FB002003F06A
:102B900073FB032003F070FB002003F06DFB0420A7
:102BA00003F06AFB002003F067FBB62003F06AFB2A
:102BB000002003F061FB002003F05EFBB72003F070
:102BC00061FB002003F058FB002003F055FB3F2081
:102BD00003F052FB002003F04FFB5E2003F04CFBA0
:102BE000002003F049FB642003F046FB002003F0C3
:102BF00043FB8C2003F040FB002003F03DFBAC20A6
:102C000003F03AFB002003F037FBDC2003F034FB39
:102C1000002001E0CC00002003F02EFB702003F028
:102C20002BFB002003F028FB902003F025FB002065
:102C300003F022FBEB2003F01FFB002003F01CFB42
:102C4000DC2003F019FB002003F016FBB82003F092
:102C500019FB002003F010FB002003F00DFB002007
:102C600003F00AFB002003F007FB002003F004FB45
:102C7000002003F001FB002003F0FEFA002003F027
:102C8000FBFABA2003F0FEFA242003F0F5FA002044
:102C900003F0F2FA002003F0EFFA002003F0ECFA60
:102CA000C12003F0EFFA202003F0E6FA002003F041
:102CB000E3FA542003F0E0FA002003F0DDFAFF20ED
:102CC00003F0DAFA002003F0D7FAC22003F0DAFAB0
:102CD0000A2003F0D1FA002003F0CEFA042003F01A
:102CE000CBFA002003F0C8FAC32003F0CBFA3C2053
:102CF00003F0C2FA002003F0BFFA3A2003F0BCFA56
:102D0000002003F0B9FA392003F0B6FA002003F0EE
:102D1000B3FA372003F0B0FA002003F0ADFA3C20FC
:102D200003F0AAFA002003F0A7FA362003F0A4FA71
:102D3000002003F0A1FA322003F09EFA002003F0F5
:102D40009BFA2F2003F098FA002003F095FA2C202C
:102D500003F092FA002003F08FFA292003F08CFA96
:102D6000002003F089FA262003F086FA002003F001
:102D700083FA242003F080FA002003F07DFA242057
:102D800003F07AFA002003F077FA232003F074FAB4
:102D9000002003F071FA3C2003F06EFA002003F0EB
:102DA0006BFA362003F068FA002003F065FA32204F
:102DB00003F062FA002003F05FFA2F2003F05CFAC0
:102DC000002003F059FA2C2003F056FA002003F0FB
:102DD00053FA292003F050FA002003F04DFA262080
:102DE00003F04AFA002003F047FA242003F044FAE3
:102DF000002003F041FA242003F03EFA002003F003
:102E00003BFA232003F038FA002003F035FAC420FF
:102E100003F038FA622003F02FFA002003F02CFAB6
:102E2000052003F029FA002003F026FA842003F09D
:102E300023FA002003F020FAF02003F01DFA00200E
:102E400003F01AFA182003F017FA002003F014FA1E
:102E5000A42003F011FA002003F00EFA182003F06A
:102E60000BFA002003F008FA502003F005FA0020C6
:102E700003F002FA0C2003F0FFF9002003F0FCF944
:102E8000172003F0F9F9002003F0F6F9952003F07C
:102E9000F3F9002003F0F0F9F32003F0EDF900203E
:102EA00003F0EAF9E62003F0E7F9002003F0E4F983
:102EB000C52003F0E7F9322003F0DEF9002003F02B
:102EC000DBF9442003F0D8F9002003F0D5F96520A0
:102ED00003F0D2F9002003F0CFF9762003F0CCF90B
:102EE000002003F0C9F9882003F0C6F9002003F0A0
:102EF000C3F9C62003F0C6F9202003F0BDF9002075
:102F000003F0BAF9172003F0B7F9002003F0B4F981
:102F1000012003F0B1F9002003F0AEF9C72003F05F
:102F2000B1F9002003F0A8F9002003F0A5F9002072
:102F300003F0A2F9002003F09FF9C82003F0A2F9E2
:102F4000002003F099F9002003F096F9002003F027
:102F500093F9002003F090F9C92003F093F90020C1
:102F600003F08AF9002003F087F9002003F084F9C8
:102F7000002003F081F9002003F07EF9002003F027
:102F80007BF9002003F078F9002003F075F90020A8
:102F900003F072F9002003F06FF9002003F06CF9E0
:102FA000002003F069F9002003F066F9002003F027
:102FB00063F9002003F060F9002003F05DF9E020E0
:102FC00003F060F9162003F057F9002003F054F9DC
:102FD0001C2003F051F9002003F04EF9212003F0EA
:102FE0004BF9002003F048F9362003F045F90020A2
:102FF00003F042F9462003F03FF9002003F03CF9CA
:10300000522003F039F9002003F036F9642003F070
:1030100033F9002003F030F97A2003F02DF9002075
:1030200003F02AF98B2003F027F9002003F024F99C
:10303000992003F021F9002003F01EF9A82003F0E5
:103040001BF9002003F018F9B92003F015F900204E
:1030500003F012F9C42003F00FF9002003F00CF97B
:10306000CA2003F009F9002003F006F9D22003F08A
:1030700003F9002003F000F9D92003F0FDF8002047
:1030800003F0FAF8E02003F0F7F8002003F0F4F87A
:10309000F32003F0F1F8002003F0EEF8E12003F054
:1030A000F1F8162003F0E8F8002003F0E5F81C2002
:1030B00003F0E2F8002003F0DFF8222003F0DCF850
:1030C000002003F0D9F8362003F0D6F8002003F0F2
:1030D000D3F8452003F0D0F8002003F0CDF85220BB
:1030E00003F0CAF8002003F0C7F8642003F0C4F826
:1030F000002003F0C1F87A2003F0BEF8002003F0AE
:10310000BBF88B2003F0B8F8002003F0B5F8992045
:1031100003F0B2F8002003F0AFF8A82003F0ACF8F9
:10312000002003F0A9F8B92003F0A6F8002003F06E
:10313000A3F8C42003F0A0F8002003F09DF8CA20F3
:1031400003F09AF8002003F097F8D22003F094F8E7
:10315000002003F091F8D82003F08EF8002003F04F
:103160008BF8E02003F088F8002003F085F8F320C6
:1031700003F082F8002003F07FF8E22003F082F8E9
:10318000052003F079F8002003F076F80B2003F017
:1031900073F8002003F070F81B2003F06DF8002096
:1031A00003F06AF8342003F067F8002003F064F8B5
:1031B000442003F061F8002003F05EF84F2003F094
:1031C0005BF8002003F058F8612003F055F8002068
:1031D00003F052F8792003F04FF8002003F04CF888
:1031E000882003F049F8002003F046F8972003F008
:1031F00043F8002003F040F8A62003F03DF800203B
:1032000003F03AF8B72003F037F8002003F034F861
:10321000C22003F031F8002003F02EF8C72003F09D
:103220002BF8002003F028F8D12003F025F8002027
:1032300003F022F8D62003F01FF8002003F01CF85A
:10324000DD2003F019F8002003F016F8F32003F056
:1032500013F8002003F010F8E32003F013F8052022
:1032600003F00AF8002003F007F80A2003F004F83E
:10327000002003F001F81C2002F0FEFF002002F005
:10328000FBFF332002F0F8FF002002F0F5FF44209E
:1032900002F0F2FF002002F0EFFF502002F0ECFFFE
:1032A000002002F0E9FF622002F0E6FF002002F0B9
:1032B000E3FF782002F0E0FF002002F0DDFF88202D
:1032C00002F0DAFF002002F0D7FF972002F0D4FFCF
:1032D000002002F0D1FFA62002F0CEFF002002F075
:1032E000CBFFB72002F0C8FF002002F0C5FFC220CC
:1032F00002F0C2FF002002F0BFFFC72002F0BCFFB7
:10330000002002F0B9FFD12002F0B6FF002002F049
:10331000B3FFD52002F0B0FF002002F0ADFFDD20AA
:1033200002F0AAFF002002F0A7FFF32002F0A4FFA2
:10333000002002F0A1FFE42002F0A4FF012002F02F
:103340009BFF002002F098FF012002F095FF002073
:1033500002F092FF022002F08FFF002002F08CFFAB
:103360002A2002F089FF002002F086FF3C2002F0B4
:1033700083FF002002F080FF4B2002F07DFF002041
:1033800002F07AFF5D2002F077FF002002F074FF68
:10339000742002F071FF002002F06EFF842002F022
:1033A0006BFF002002F068FF932002F065FF002011
:1033B00002F062FFA22002F05FFF002002F05CFF3B
:1033C000B32002F059FF002002F056FFBE2002F0A9
:1033D00053FF002002F050FFC42002F04DFF0020F8
:1033E00002F04AFFCD2002F047FF002002F044FF28
:1033F000D32002F041FF002002F03EFFDD2002F06A
:103400003BFF002002F038FFF32002F035FF0020E0
:1034100002F032FFE52002F035FF002002F02CFF21
:10342000002002F029FF002002F026FF002002F019
:1034300023FF022002F020FF002002F01DFF2920C0
:1034400002F01AFF002002F017FF3C2002F014FFE8
:10345000002002F011FF4B2002F00EFF002002F0CE
:103460000BFF5D2002F008FF002002F005FF742032
:1034700002F002FF002002F0FFFE842002F0FCFEBA
:10348000002002F0F9FE932002F0F6FE002002F088
:10349000F3FEA22002F0F0FE002002F0EDFEB320C9
:1034A00002F0EAFE002002F0E7FEBE2002F0E4FE99
:1034B000002002F0E1FEC42002F0DEFE002002F057
:1034C000DBFECD2002F0D8FE002002F0D5FED32096
:1034D00002F0D2FE002002F0CFFEDC2002F0CCFE93
:1034E000002002F0C9FEF32002F0C6FE002002F028
:1034F000C3FEE62002F0C6FE112002F0BDFE002051
:1035000002F0BAFE342002F0B7FE002002F0B4FE52
:10351000562002F0B1FE002002F0AEFE762002F04E
:10352000ABFE002002F0A8FE772002F0A5FE0020EE
:1035300002F0A2FE662002F09FFE002002F09CFE38
:10354000882002F099FE002002F096FE992002F0F9
:1035500093FE002002F090FEBB2002F08DFE0020C2
:1035600002F08AFE992002F087FE002002F084FE1D
:10357000662002F081FE002002F07EFE552002F05F
:103580007BFE002002F078FE552002F075FE002040
:1035900002F072FE452002F06FFE002002F06CFE89
:1035A000432002F069FE002002F066FE442002F093
:1035B00063FE002002F060FEE72002F063FE32208E
:1035C00002F05AFE002002F057FE552002F054FE91
:1035D000002002F051FE762002F04EFE002002F0A4
:1035E0004BFE662002F048FE002002F045FE6720F8
:1035F00002F042FE002002F03FFE672002F03CFE97
:10360000002002F039FE872002F036FE002002F092
:1036100033FE992002F030FE002002F02DFEBB2088
:1036200002F02AFE002002F027FE992002F024FE7C
:10363000002002F021FE772002F01EFE002002F0A2
:103640001BFE442002F018FE002002F015FE56205A
:1036500002F012FE002002F00FFE232002F00CFE0A
:10366000002002F009FE332002F006FE002002F0E6
:1036700003FE452002F000FE002002F0FDFDE820E0
:1036800002F000FE002002F0F7FD002002F0F4FD41
:10369000992002F0F1FD002002F0EEFD872002F0FB
:1036A000EBFD002002F0E8FD882002F0E5FD00209F
:1036B00002F0E2FD772002F0DFFD002002F0DCFDE9
:1036C000662002F0D9FD002002F0D6FD882002F02D
:1036D000D3FD002002F0D0FDAA2002F0CDFD002095
:1036E00002F0CAFDBB2002F0C7FD002002F0C4FDBD
:1036F000992002F0C1FD002002F0BEFD662002F01C
:10370000BBFD002002F0B8FD552002F0B5FD002001
:1037100002F0B2FD552002F0AFFD002002F0ACFD3A
:10372000442002F0A9FD002002F0A6FD442002F092
:10373000A3FD002002F0A0FD552002F09DFD002019
:1037400002F09AFDE92002F09DFDAA2002F094FD0E
:10375000002002F091FD002002F08EFD002002F01A
:103760008BFD002002F08EFDAA2002F085FDCF2007
:1037700002F088FD002002F07FFD002002F07CFDB9
:10378000002002F079FD002002F076FD002002F01A
:1037900073FD002002F070FD002002F06DFD00209E
:1037A00002F06AFD002002F067FD002002F064FDD7
:1037B000002002F061FD002002F05EFD002002F01A
:1037C0005BFD002002F058FD002002F055FD0020B6
:1037D00002F052FD002002F04FFDF02002F052FDF9
:1037E000002002F049FD502002F046FD002002F0CA
:1037F00043FD002002F040FD002002F03DFDF320DB
:1038000002F040FD002002F037FDF92002F03AFD01
:10381000062002F031FD102002F02EFD292002F0DA
:103820002BFD002002F028FD3A2002F02BFD552050
:1038300002F022FD112002F025FD642004F02AFF91
:10384000292002F01FFD352002F01CFD002002F0AF
:1038500013FD512002F016FDFF2002F00DFD532054
:1038600002F010FD2C2002F007FD552002F00AFDA9
:10387000822002F001FD2C2002F004FD02F0E6B8E7
:10388000FE48808845F2105188427DD155214FF481
:10389000704002F007FDAA214FF2010002F002FD84
:1038A00052214FF2020002F0FDFC08214FF203000A
:1038B00002F0F8FC01214FF2040002F0F3FC0D21AC
:1038C0004FF4304002F0EEFC0D214BF2010002F00B
:1038D000E9FC0D214BF2020002F0E4FC34214FF42C
:1038E000364002F0DFFC34214BF2016002F0DAFCDA
:1038F00034214BF2026002F0D5FC0D214FF431402F
:1039000002F0D0FC0D214BF2011002F0CBFC0D2196
:103910004BF2021002F0C6FC34214FF4374002F0A3
:10392000C1FC34214BF2017002F0BCFC34214BF29B
:10393000027002F0B7FC00214FF4324002F0B2FCFA
:1039400000214BF2012002F0ADFC00214BF20220DD
:1039500002F0A8FC24214FF4384002F0A3FC2421FB
:103960004BF6010002F09EFC24214BF6020002F00F
:1039700099FC01214FF43F4002F094FC0F214FF4D9
:10398000334002F08FFC00E0FDE30F214BF20130E9
:1039900002F088FC0F214BF2023002F083FC34214C
:1039A0004FF4394002F07EFC34214BF6011002F056
:1039B00079FC34214BF6021002F074FC08214FF41C
:1039C000354002F06FFC08214BF2015002F06AFC16
:1039D00008214BF2025002F065FC03214FF44240F3
:1039E00002F060FC24214FF43A4002F05BFC2421F9
:1039F0004BF6012002F056FC24214BF6022002F087
:103A000051FC00214FF43C4002F04CFC78214BF675
:103A1000014002F047FC00214BF6024002F042FC5C
:103A200000214FF43D4002F03DFC78214BF601505F
:103A300002F038FC00214BF6025002F033FC00216A
:103A40004FF43E4002F02EFC64214BF6016002F080
:103A500029FC00214FF4514002F024FC33214DF2A7
:103A6000011002F01FFC00214DF2021002F01AFCBE
:103A700034214DF2031002F015FC00214DF2041028
:103A800002F010FC3A214DF2051002F00BFC00216F
:103A90004DF2061002F006FC4A214DF2071002F02A
:103AA00001FC00214DF2081002F0FCFB5C214DF2FC
:103AB000091002F0F7FB00214DF20A1002F0F2FBB0
:103AC00081214DF20B1002F0EDFB00214DF20C10A4
:103AD00002F0E8FBA6214DF20D1002F0E3FB0021FD
:103AE0004DF20E1002F0DEFBE5214DF20F1002F058
:103AF000D9FB01214DF2101002F0D4FB13214DF23D
:103B0000111002F0CFFB01214DF2121002F0CAFB9E
:103B100054214DF2131002F0C5FB01214DF2141097
:103B200002F0C0FB82214DF2151002F0BBFB012117
:103B30004DF2161002F0B6FBCA214DF2171002F03A
:103B4000B1FB02214DF2181002F0ACFB00214DF246
:103B5000191002F0A7FB02214DF21A1002F0A2FB8D
:103B600001214DF21B1002F09DFB02214DF21C10B1
:103B700002F098FB34214DF21D1002F093FB02215C
:103B80004DF21E1002F08EFB67214DF21F1002F065
:103B900089FB02214DF2201002F084FB84214DF2BA
:103BA000211002F07FFB02214DF2221002F07AFB7D
:103BB000A4214DF2231002F075FB02214DF22410D6
:103BC00002F070FBB7214DF2251002F06BFB0221D1
:103BD0004DF2261002F066FBCF214DF2271002F0C5
:103BE00061FB02214DF2281002F05CFBDE214DF258
:103BF000291002F057FB02214DF22A1002F052FB6D
:103C0000F2214DF22B1002F04DFB02214DF22C104F
:103C100002F048FBFE214DF22D1002F043FB032180
:103C20004DF22E1002F03EFB10214DF22F1002F04B
:103C300039FB03214DF2301002F034FB33214DF2F9
:103C4000311002F02FFB03214DF2321002F02AFB5B
:103C50006D214DF2331002F025FB00214FF452404C
:103C600002F020FB33214DF2012002F01BFB00216A
:103C70004DF2022002F016FB342101E0CC000020BE
:103C80004DF2032002F00EFB00214DF2042002F061
:103C900009FB3A214DF2052002F004FB00214DF210
:103CA000062002F0FFFA4A214DF2072002F0FAFA4C
:103CB00000214DF2082002F0F5FA5C214DF20920B6
:103CC00002F0F0FA00214DF20A2002F0EBFA812115
:103CD0004DF20B2002F0E6FA00214DF20C2002F02A
:103CE000E1FAA6214DF20D2002F0DCFA00214DF29E
:103CF0000E2002F0D7FAE5214DF20F2002F0D2FAA1
:103D000001214DF2102002F0CDFA13214DF21120C5
:103D100002F0C8FA01214DF2122002F0C3FA542138
:103D20004DF2132002F0BEFA01214DF2142002F0F0
:103D3000B9FA82214DF2152002F0B4FA01214DF2B8
:103D4000162002F0AFFACA214DF2172002F0AAFAAB
:103D500002214DF2182002F0A5FA00214DF219209F
:103D600002F0A0FA02214DF21A2002F09BFA012182
:103D70004DF21B2002F096FA02214DF21C2002F0B7
:103D800091FA34214DF21D2002F08CFA02214DF2FD
:103D90001E2002F087FA67214DF21F2002F082FAFE
:103DA00002214DF2202002F07DFA84214DF22120E3
:103DB00002F078FA02214DF2222002F073FAA421D7
:103DC0004DF2232002F06EFA02214DF2242002F07F
:103DD00069FAB7214DF2252002F064FA02214DF272
:103DE000262002F05FFACF214DF2272002F05AFA86
:103DF00002214DF2282002F055FADE214DF2292051
:103E000002F050FA02214DF22A2002F04BFAF22180
:103E10004DF22B2002F046FA02214DF22C2002F046
:103E200041FAFE214DF22D2002F03CFA03214DF221
:103E30002E2002F037FA10214DF22F2002F032FA34
:103E400003214DF2302002F02DFA33214DF23120C2
:103E500002F028FA03214DF2322002F023FA6D21FC
:103E60004DF2332002F01EFA00214FF4534002F0CD
:103E700019FA33214DF2013002F014FA00214DF20B
:103E8000023002F00FFA34214DF2033002F00AFA48
:103E900000214DF2043002F005FA3A214DF20530CE
:103EA00002F000FA00214DF2063002F0FBF94A213F
:103EB0004DF2073002F0F6F900214DF2083002F021
:103EC000F1F95C214DF2093002F0ECF900214DF2DC
:103ED0000A3002F0E7F981214DF20B3002F0E2F9ED
:103EE00000214DF20C3002F0DDF9A6214DF20D302B
:103EF00002F0D8F900214DF20E3002F0D3F9E5219D
:103F00004DF20F3002F0CEF901214DF2103002F0E7
:103F1000C9F913214DF2113002F0C4F901214DF21B
:103F2000123002F0BFF954214DF2133002F0BAF909
:103F300001214DF2143002F0B5F982214DF2153015
:103F400002F0B0F901214DF2163002F0ABF9CA21AE
:103F50004DF2173002F0A6F902214DF2183002F0AE
:103F6000A1F900214DF2193002F09CF902214DF225
:103F70001A3002F097F901214DF21B3002F092F94C
:103F800002214DF21C3002F08DF934214DF21D302A
:103F900002F088F902214DF21E3002F083F9672108
:103FA0004DF21F3002F07EF902214DF2203002F076
:103FB00079F984214DF2213002F074F902214DF299
:103FC000223002F06FF9A4214DF2233002F06AF999
:103FD00002214DF2243002F065F9B7214DF225306F
:103FE00002F060F902214DF2263002F05BF9CF2198
:103FF0004DF2273002F056F902214DF2283002F03E
:1040000051F9DE214DF2293002F04CF902214DF236
:104010002A3002F047F9F2214DF22B3002F042F93A
:1040200002214DF22C3002F03DF9FE214DF22D30EF
:1040300002F038F903214DF22E3002F033F910214D
:104040004DF22F3002F02EF903214DF2303002F004
:1040500029F933214DF2313002F024F903214DF2D8
:10406000323002F01FF96D214DF2333002F01AF9AF
:1040700000214FF4544002F015F933214DF2014074
:1040800002F010F900214DF2024002F00BF9342148
:104090004DF2034002F006F900214DF2044002F017
:1040A00001F93A214DF2054002F0FCF800214DF2F1
:1040B000064002F0F7F84A214DF2074002F0F2F80C
:1040C00000214DF2084002F0EDF85C214DF209406C
:1040D00002F0E8F800214DF20A4002F0E3F88121F5
:1040E0004DF20B4002F0DEF800214DF20C4002F0E0
:1040F000D9F8A6214DF20D4002F0D4F800214DF27E
:104100000E4002F0CFF8E5214DF20F4002F0CAF860
:1041100001214DF2104002F0C5F813214DF211407B
:1041200002F0C0F801214DF2124002F0BBF8542118
:104130004DF2134002F0B6F801214DF2144002F0A6
:10414000B1F882214DF2154002F0ACF801214DF298
:10415000164002F0A7F8CA214DF2174002F0A2F86B
:1041600002214DF2184002F09DF800214DF2194055
:1041700002F098F802214DF21A4002F093F8012162
:104180004DF21B4000E006E302F08CF802214DF2F4
:104190001C4002F087F834214DF21D4002F082F8F5
:1041A00002214DF21E4002F07DF867214DF21F40C2
:1041B00002F078F802214DF2204002F073F88421D9
:1041C0004DF2214002F06EF802214DF2224002F041
:1041D00069F8A4214DF2234002F064F802214DF267
:1041E000244002F05FF8B7214DF2254002F05AF862
:1041F00002214DF2264002F055F8CF214DF2274022
:1042000002F050F802214DF2284002F04BF8DE2176
:104210004DF2294002F046F802214DF22A4002F008
:1042200041F8F2214DF22B4002F03CF802214DF210
:104230002C4002F037F8FE214DF22D4002F032F80A
:1042400003214DF22E4002F02DF810214DF22F40A7
:1042500002F028F803214DF2304002F023F8332118
:104260004DF2314002F01EF803214DF2324002F0CF
:1042700019F86D214DF2334002F014F800214FF48B
:10428000554002F00FF833214DF2015002F00AF8C8
:1042900000214DF2025002F005F834214DF2035096
:1042A00002F000F800214DF2045001F0FBFF3A212A
:1042B0004DF2055001F0F6FF00214DF2065001F0DD
:1042C000F1FF4A214DF2075001F0ECFF00214DF2C1
:1042D000085001F0E7FF5C214DF2095001F0E2FFC8
:1042E00000214DF20A5001F0DDFF81214DF20B500B
:1042F00001F0D8FF00214DF20C5001F0D3FFA621B0
:104300004DF20D5001F0CEFF00214DF20E5001F0A4
:10431000C9FFE5214DF20F5001F0C4FF01214DF21C
:10432000105001F0BFFF13214DF2115001F0BAFF00
:1043300001214DF2125001F0B5FF54214DF21350FE
:1043400001F0B0FF01214DF2145001F0ABFF8221CA
:104350004DF2155001F0A6FF01214DF2165001F06B
:10436000A1FFCA214DF2175001F09CFF02214DF22E
:10437000185001F097FF00214DF2195001F092FF03
:1043800002214DF21A5001F08DFF01214DF21B5018
:1043900001F088FF02214DF21C5001F083FF34210F
:1043A0004DF21D5001F07EFF02214DF21E5001F032
:1043B00079FF67214DF21F5001F074FF02214DF289
:1043C000205001F06FFF84214DF2215001F06AFF6F
:1043D00002214DF2225001F065FFA4214DF223503D
:1043E00001F060FF02214DF2245001F05BFFB72184
:1043F0004DF2255001F056FF02214DF2265001F0FA
:1044000051FFCF214DF2275001F04CFF02214DF218
:10441000285001F047FFDE214DF2295001F042FF04
:1044200002214DF22A5001F03DFFF2214DF22B50B6
:1044300001F038FF02214DF22C5001F033FFFE2134
:104440004DF22D5001F02EFF03214DF22E5001F0C0
:1044500029FF10214DF22F5001F024FF03214DF2CE
:10446000305001F01FFF33214DF2315001F01AFF9F
:1044700003214DF2325001F015FF6D214DF2335002
:1044800001F010FF00214FF4564001F00BFF3321E3
:104490004DF2016001F006FF00214DF2026001F0D3
:1044A00001FF34214DF2036001F0FCFE00214DF2CA
:1044B000046001F0F7FE3A214DF2056001F0F2FED2
:1044C00000214DF2066001F0EDFE4A214DF2076039
:1044D00001F0E8FE00214DF2086001F0E3FE5C21EE
:1044E0004DF2096001F0DEFE00214DF20A6001F09C
:1044F000D9FE81214DF20B6001F0D4FE00214DF276
:104500000C6001F0CFFEA6214DF20D6001F0CAFE55
:1045100000214DF20E6001F0C5FEE5214DF20F6065
:1045200001F0C0FE01214DF2106001F0BBFE13212D
:104530004DF2116001F0B6FE01214DF2126001F062
:10454000B1FE54214DF2136001F0ACFE01214DF299
:10455000146001F0A7FE82214DF2156001F0A2FE69
:1045600001214DF2166001F09DFECA214DF2176047
:1045700001F098FE02214DF2186001F093FE002137
:104580004DF2196001F08EFE02214DF21A6001F029
:1045900089FE01214DF21B6001F084FE02214DF2E3
:1045A0001C6001F07FFE34214DF21D6001F07AFEA7
:1045B00002214DF21E6001F075FE67214DF21F6071
:1045C00001F070FE02214DF2206001F06BFE8421AB
:1045D0004DF2216001F066FE02214DF2226001F0F1
:1045E00061FEA4214DF2236001F05CFE02214DF238
:1045F000246001F057FEB7214DF2256001F052FE14
:1046000002214DF2266001F04DFECF214DF22760D0
:1046100001F048FE02214DF2286001F043FEDE2148
:104620004DF2296001F03EFE02214DF22A6001F0B8
:1046300039FEF2214DF22B6001F034FE02214DF2E1
:104640002C6001F02FFEFE214DF22D6001F02AFEBC
:1046500003214DF22E6001F025FE10214DF22F6056
:1046600001F020FE03214DF2306001F01BFE3321EA
:104670004DF2316001F016FE03214DF2326001F07F
:1046800011FE6D214DF2336001F00CFE55214FF407
:10469000704001F007FEAA214FF2010001F002FE76
:1046A00052214FF2020001F0FDFD08214FF20300FC
:1046B00001F0F8FD00214FF2040001F0F3FDCC21E0
:1046C0004FF4314001F0EEFD00214BF2011001F0FA
:1046D000E9FD05214FF4364001F0E4FD70214FF46F
:1046E000374001F0DFFD70214BF2017001F0DAFD7F
:1046F00001214FF4384001F0D5FD03214BF60100B4
:1047000001F0D0FD03214BF6020001F0CBFD0321A7
:104710004BF6030001F0C6FD02214FF43C4001F0CE
:10472000C1FD00214BF6014001F0BCFD00214BF61C
:10473000024001F0B7FDD0214FF4494001F0B2FD35
:1047400002214CF6011001F0ADFD50214CF6021093
:1047500001F0A8FD50214CF6031001F0A3FD5021FB
:104760004CF6041001F09EFD00214FF4545001F06E
:1047700099FD55214FF4685001F094FD4FF4885095
:1047800001F080FD782003F0ABFF4FF4245001F0DE
:1047900079FD01F05BB9FE48808849F225318842F5
:1047A0007ED147F6F001E52001F07CFD4FF48071E9
:1047B000012001F077FD4FF4E061022001F072FD6D
:1047C00041F23001032001F06DFD0021042001F0D1
:1047D00069FD40F20221082001F064FD002109205A
:1047E00001F060FD00210A2001F05CFD00210C2099
:1047F00001F058FD00210D2001F054FD00210F2093
:1048000001F050FD0021102001F04CFD0721112086
:1048100001F048FD0021122001F044FD0021132089
:1048200001F040FD0021072001F03CFD41F29061C4
:10483000102001F037FD40F22721112001F032FD58
:104840009D21122001F02EFD4FF4C851132001F0DC
:1048500029FD2521292001F025FD0D212B2001F026
:1048600021FD0721302001F01DFD40F203313120F0
:1048700001F018FD0321322001F014FD40F2062161
:10488000352001F00FFD0821362001F00BFD40F22C
:104890000641372001F006FD4FF44171382000E059
:1048A00057E001F0FFFC0721392001F0FBFC40F24A
:1048B00002613C2001F0F6FC08213D2001F0F2FCF1
:1048C0000021502001F0EEFCEF21512001F0EAFC24
:1048D0000021522001F0E6FC40F23F11532001F08C
:1048E000E1FC4FF42741602001F0DCFC0121612054
:1048F00001F0D8FC00216A2001F0D4FC00218020C6
:1049000001F0D0FC0021812001F0CCFC00218220AC
:1049100001F0C8FC0021832001F0C4FC00218420A8
:1049200001F0C0FC0021852001F0BCFC102190208A
:1049300001F0B8FC4FF4C061922001F0B3FC40F2EA
:104940003311072001F0AEFC2221002001F0AAFC67
:104950001FE78F48808849F2283188427ED141F292
:104960008F01EC2001F09EFC41F23421EF2001F098
:1049700099FC4FF48071012001F094FC4FF4E06148
:10498000022001F08FFC41F23001032001F08AFC8B
:104990000021042001F086FC40F20221082001F0F1
:1049A00081FC0021092001F07DFC00210A2001F09A
:1049B00079FC01210C2001F075FC00210D2001F093
:1049C00071FC00210F2001F06DFC0021102001F08E
:1049D00069FC0721112001F065FC0021122001F083
:1049E00061FC0021132001F05DFC0121072001F092
:1049F00059FC322003F04EFE41F29041102001F0AC
:104A000051FC40F22721112001F04CFC322003F030
:104A100041FE8A21122001F045FC322003F03AFECB
:104A20004FF4D051132001F03DFC0621292001F064
:104A300039FC0D212B2001F035FC322003F02AFE39
:104A40000021202001F02EFC0021212001F02AFC71
:104A5000322003F01FFE0021302000E074E001F05E
:104A600021FC40F20461312001F01CFC40F20531D0
:104A7000322001F017FC0021352001F013FC40F634
:104A80000941362001F00EFC4FF40171372001F08E
:104A900009FC40F20131382001F004FC40F20771BA
:104AA000392001F0FFFB00213C2001F0FBFB40F628
:104AB0000A213D2001F0F6FB322003F0EBFD00213E
:104AC000502001F0EFFBEF21512001F0EBFB002122
:104AD000522001F0E7FB40F23F11532001F0E2FBCE
:104AE0004FF42741602001F0DDFB0121612001F03E
:104AF000D9FB00216A2001F0D5FB0021802001F0C4
:104B0000D1FB0021812001F0CDFB0021822001F0AA
:104B1000C9FB0021832001F0C5FB0021842001F0A6
:104B2000C1FB0021852001F0BDFB1021902001F088
:104B3000B9FB4FF4C061922001F0B4FB40F2331195
:104B4000072001F0AFFB24E61148808849F22031AC
:104B500088427DD10021084601F0A4FB4FF480710A
:104B6000012001F09FFB4FF4E061022001F09AFB6D
:104B700041F23001032001F095FB0021042001F0F7
:104B800091FB40F20221082001F08CFB002101E0A2
:104B9000CC000020092001F085FB00210A2001F053
:104BA00081FB01210C2001F07DFB00210D2001F093
:104BB00079FB00210F2001F075FB322003F06AFD24
:104BC00040F20111072001F06DFB322003F062FD7D
:104BD0004FF48651102001F065FB0721112001F0F0
:104BE00061FB4FF48871122001F05CFB4FF43061DF
:104BF000132001F057FB0021292001F053FB44F260
:104C000010012B2001F04EFB0021502001F04AFB47
:104C1000EF21512001F046FB0021522001F042FB20
:104C200040F23F11532001F03DFB4FF41C51602036
:104C300001F038FB0121612001F034FB00216A20E2
:104C400001F030FB0021802001F02CFB002100E06E
:104C500031E0812001F026FB0021822001F022FBBF
:104C60000021832001F01EFB0021842001F01AFBAB
:104C70000021852001F016FB1021902001F012FB8D
:104C80000021922001F00EFB0121932001F00AFB8C
:104C90004FF48871952001F005FB0021972001F069
:104CA00001FB0021982001F0FDFA40F2731107206A
:104CB00001F0F8FA6DE5FE48808849F2313188420A
:104CC0007DD141F21401E72001F0ECFA4FF480713C
:104CD000012001F0E7FA4FF40071022001F0E2FA3E
:104CE00041F23801032001F0DDFA40F202210820F0
:104CF00001F0D8FA0021092001F0D4FA00210A209D
:104D000001F0D0FA00210C2001F0CCFA00210D2096
:104D100001F0C8FA00210F2001F0C4FA0021102090
:104D200001F0C0FA0721112001F0BCFA0021122085
:104D300001F0B8FA0021132001F0B4FAC82003F002
:104D4000A9FC41F29061102001F0ACFA40F2272159
:104D5000112001F0A7FA322003F09CFC0C21122054
:104D600001F0A0FA322003F095FC4FF4006113200B
:104D700001F098FA1121292001F094FA0B212B203F
:104D800001F090FA322003F085FC0021202001F090
:104D900089FA40F23F11212001F084FA00213020ED
:104DA00001F080FA4FF48371312001F07BFA002189
:104DB000322001F077FA4FF40171352000E064E011
:104DC00001F070FA41F20A61362001F06BFA40F20C
:104DD0000771372001F066FA4FF48371382001F033
:104DE00061FA40F20771392001F05CFA40F20241A9
:104DF0003C2001F057FA40F60F413D2001F052FAF5
:104E00000021502001F04EFAEF21512001F04AFA22
:104E10000021522001F046FA40F23F11532001F0E8
:104E200041FA4FF41C51602001F03CFA012161204D
:104E300001F038FA00216A2001F034FA00218020C4
:104E400001F030FA0021812001F02CFA00218220AB
:104E500001F028FA0021832001F024FA00218420A7
:104E600001F020FA0021852001F01CFA1021902089
:104E700001F018FA4FF4C061922001F013FA40F2E9
:104E80003311072001F00EFA83E48948808845F247
:104E9000084188427ED14FF48071012001F002FA6E
:104EA0004FF4E061022001F0FDF941F230010320EE
:104EB00001F0F8F90021042001F0F4F940F2072193
:104EC000082001F0EFF90021092001F0EBF90021A1
:104ED0000A2001F0E7F900210C2001F0E3F900219C
:104EE0000D2001F0DFF900210F2001F0DBF9142083
:104EF00003F0D0FB41F2B061102001F0D3F90121A1
:104F0000112001F0CFF90121172001F0CBF94FF466
:104F10009C71122001F0C6F94FF40061132001F0DA
:104F2000C1F90921292001F0BDF909212A2001F048
:104F3000B9F90021A42001F0B5F90021502001F0B9
:104F4000B1F9EF21512001F0ADF90021522001F01B
:104F5000A9F940F23F11532001F0A4F94FF41C517C
:104F6000602001F09FF90121612001F09BF90021EF
:104F70006A2001F097F90021802001F093F90021C7
:104F8000812001F08FF90021822001F08BF90021AE
:104F9000832000E023E001F085F90021842001F066
:104FA00081F90021852001F07DF91321902001F085
:104FB00079F90021922001F075F90321932001F085
:104FC00071F94FF48871952001F06CF940F273117A
:104FD000072001F067F9322003F05CFBB8E43448A5
:104FE000808841F2055188427ED10021072001F0DE
:104FF00059F9322003F04EFB4FF48E71122001F06C
:1050000051F90121A42001F04DF90F21082001F0F0
:1050100049F908210A2001F045F908210D2001F085
:1050200041F940F20771302001F03CF907213120AD
:1050300001F038F940F20361322001F033F94FF406
:10504000E061332001F02EF940F20221342001F01A
:1050500029F90221352001F025F941F60F7136209A
:1050600001F020F940F20771372001F01BF900210F
:10507000382001F017F90021392001F013F940F22E
:1050800007713A2001F00EF900213B2001F00AF9E6
:1050900007213C2001F006F900213D2001F002F932
:1050A000322003F0F7FA0121072001F0FBF801E0BC
:1050B000CC0000200121172001F0F4F8322003F089
:1050C000E9FA4FF4BD51102001F0ECF840F217213D
:1050D000112001F0E7F84FF48F71122001F0E2F88F
:1050E0004FF47061132000E097E001F0DBF800213D
:1050F0002A2001F0D7F80A21292001F0D3F84FF433
:105100009F71122001F0CEF80021502001F0CAF862
:10511000EF21512001F0C6F80021522001F0C2F821
:1051200040F23F11532001F0BDF84FF41C516020B4
:1051300001F0B8F80121612001F0B4F800216A20E3
:1051400001F0B0F80021802001F0ACF800218120AE
:1051500001F0A8F80021822001F0A4F800218320AA
:1051600001F0A0F80021842001F09CF800218520A6
:1051700001F098F81321902001F094F84FF4407159
:10518000922001F08FF80521932001F08BF8002187
:10519000952001F087F80021972001F083F8002185
:1051A000982001F07FF84FF48071012001F07AF827
:1051B0004FF4E061022001F075F841F2380103205C
:1051C00001F070F80021042001F06CF800210C209F
:1051D00001F068F800210F2001F064F80021202080
:1051E00001F060F80021212001F05CF82121072066
:1051F00001F058F8142003F04DFA6121072001F066
:1052000051F8142003F046FA40F27311072001F020
:1052100049F8142003F03EFA95E4FE4880884BF2EA
:10522000055188427ED10021084601F03BF800215B
:10523000084601F037F80021084601F033F8002154
:10524000084601F02FF80121A42001F02BF81420CA
:1052500003F020FA4FF41C51602001F023F840F2D3
:105260000221082001F01EF84FF40571302001F0F2
:1052700019F843F21571312001F014F840F204617D
:10528000322001F00FF840F61661332001F00AF8E1
:1052900042F21121342001F005F84FF4A8513520D5
:1052A00001F000F848F20751362000F0FBFF41F210
:1052B0000741372000F0F6FF41F20341382000F0AB
:1052C000F1FF2021392000F0EDFF1A21902000F09D
:1052D000E9FF0021102000F0E5FF0721112000F078
:1052E000E1FF0021122000F0DDFF0021132000F07B
:1052F000D9FF142003F0CEF94FF4E661102000F03E
:10530000D1FF40F23711112000F0CCFF142003F040
:10531000C1F94FF4DC71122000F0C4FF142003F037
:10532000B9F900E083E04FF47061132000F0BAFF98
:1053300080212A2000F0B6FF4821292000F0B2FF8A
:10534000142003F0A7F94FF48071012000F0AAFFA8
:105350004FF4E061022000F0A5FF41F23801032084
:1053600000F0A0FF40F20221082000F09BFF002186
:105370000A2000F097FF00210C2000F093FF00218D
:105380000D2000F08FFF30210E2000F08BFF002158
:10539000502000F087FFEF21512000F083FF002113
:1053A000522000F07FFF40F23F11532000F07AFFBF
:1053B0004FF41C51602000F075FF0121612000F0C6
:1053C00071FF00216A2000F06DFF1121902000F094
:1053D00069FF4FF4C061922000F064FF40F2024187
:1053E000932000F05FFF0221942000F05BFF142067
:1053F00003F050F90121072000F054FF142003F0BE
:1054000049F96121072000F04DFF40F27311072098
:1054100000F048FF0021202000F044FF002121205F
:1054200000F040FF2221002000F03CFF0EE379480D
:1054300080884CF2055188427ED10021084600F058
:1054400031FF0021084600F02DFF142003F022F95F
:105450000021084600F026FF0021084600F022FF48
:105460000021084600F01EFF0021084600F01AFF48
:105470000121A42000F016FF142003F00BF94FF4D3
:105480001C51602000F00EFF40F60601082000F0DD
:1054900009FF40F20371302000F004FF01213120A8
:1054A00000F000FF0421322000F0FCFE4FF4817177
:1054B000332000F0F7FE4FF44071342000F0F2FE8C
:1054C00040F20311352000F0EDFE1F21362000F0E0
:1054D000E9FE40F20371372000F0E4FE012138209C
:1054E00000F0E0FE0421392000F0DCFE15219020C0
:1054F00000F0D8FE4FF48261102000F0D3FE40F29D
:105500004721112000F0CEFE4FF4DE71122000F092
:10551000C9FE4FF46061132000F0C4FE782003F050
:10552000B9F84FF48071012000F0BCFE4FF4007117
:10553000022000F0B7FE00E050E041F2300103200D
:1055400000F0B0FE08210A2000F0ACFE00210C2083
:1055500000F0A8FE20210E2000F0A4FE00210F2064
:1055600000F0A0FE0021202000F09CFE0021212060
:1055700000F098FE3D212A2000F094FE142003F054
:1055800089F82D21292000F08DFE0021502000F007
:1055900089FE4DF2EF01512000F084FE00215220DF
:1055A00000F080FE40F23F11532000F07BFE00210E
:1055B000612000F077FE00216A2000F073FE4FF4B6
:1055C0004071922000F06EFE0521932000F06AFEEB
:1055D0004FF48071072000F065FE37E20D488088A7
:1055E00044F2315188427CD10121002000F05AFE62
:1055F0000A2003F04FF841F22861102000F052FE1B
:105600000E21122000F04EFE40F63921132000F04A
:1056100049FE01E0CC0000200A2003F03BF84021C5
:10562000112000F03FFE5021152000F03BFE0A2023
:1056300003F030F81E21122000F034FE0A2003F09F
:1056400029F84FF4B151102000F02CFE42F6392118
:10565000132000F027FE0A2003F01CF84FF480719D
:10566000012000F01FFE4FF44071022000F01AFEEE
:1056700041F23801032000F015FE40F2022108201B
:1056800000F010FE08210A2000F00CFE002130205E
:1056900000F008FE40F20241312000F003FE4FF41A
:1056A0008371322000F0FEFD40F20351332000F000
:1056B000F9FD4FF48271342000F0F4FD40F2013125
:1056C000352000F0EFFD40F20771362000F0EAFDD2
:1056D00040F20531372000F0E5FD4FF4027138202B
:1056E00000E040E000F0DEFD40F60B71392000F0F4
:1056F000D9FD0221412000F0D5FD4FF41C5160205E
:1057000000F0D0FD0121612000F0CCFD4FF40471C8
:10571000902000F0C7FD4FF48571922000F0C2FD8B
:105720000421932000F0BEFD4FF48071A02000F012
:10573000B9FD0121072000F0B5FD2121072000F06F
:10574000B1FD2321072000F0ADFD3321072000F03B
:10575000A9FD40F23311072000F0A4FD0021A02094
:1057600000F0A0FD72E1BF48808844F235518842C4
:105770007ED13021152000F095FD10219A2000F0F7
:1057800091FD2021112000F08DFD43F228411020D1
:1057900000F088FD0221122000F084FD41F2380162
:1057A000132000F07FFD282002F074FF122108462C
:1057B00000F078FD282002F06DFF43F22041102018
:1057C00000F070FD43F23801132000F06BFD46201D
:1057D00002F060FF0021302000F064FD40F2024141
:1057E000312000F05FFD40F20731322000F05AFD19
:1057F0004FF44171332000F055FD0421342000F0B6
:1058000051FD40F20141352000F04CFD40F207719E
:10581000362000F047FD40F20531372000F042FD10
:105820004FF4C261382000F03DFD4FF4C2613920D1
:1058300000F038FD4FF48071012000F033FD4FF48B
:105840004071022000F02EFD41F23001032000F0F3
:1058500029FD40F60801082000F024FD08210A2057
:1058600000F020FD4FF41C51602000F01BFD00E013
:1058700031E00121612000F015FD4FF49F7190206F
:1058800000F010FD4FF48071922000F00BFD4FF4FA
:105890008071932000F006FD4FF44051A02000F0ED
:1058A00001FD1021A32000F0FDFC0121072000F0E4
:1058B000F9FC2121072000F0F5FC2321072000F04E
:1058C000F1FC3321072000F0EDFC40F233110720FA
:1058D00000F0E8FCBAE06348808841F66311884232
:1058E000F8D1E22000F0CEFC232000F0C5FC02201D
:1058F00000F0C2FC042000F0BFFC642002F0F0FEC7
:10590000E02000F0BFFC012000F0B6FC0A2002F00D
:10591000C1FEE02000F0B6FC032000F0ADFC0C203E
:1059200002F0B8FE012000F0ADFC0A2002F0B2FE49
:10593000E62000F0A7FC032000F09EFCFF2000F012
:105940009BFCFF2000F098FCB02000F09BFC202086
:1059500000F092FC002000F08FFC032000F08CFC93
:1059600040F21F3000F088FC012000F085FC40F27E
:10597000DF1000F081FC002000F07EFCB42000F07D
:1059800081FC042000F078FC40F21F4000F074FC21
:10599000002000F071FCD22000F06EFC002000F02E
:1059A0006BFC002000F068FC002000F065FC00208B
:1059B00000F062FCB62000F065FC022000F05CFC08
:1059C0004FF4037000F058FC002000F055FC22203A
:1059D00000F052FC092000F04FFC002000F04CFCCD
:1059E000002000F049FCF02000F04CFC032000F007
:1059F00043FC292000F046FCD02000F043FC0020AE
:105A000000F03AFCBE2000F03DFC052000F034FC24
:105A1000FE2000F031FC012000F02EFCFF2000F001
:105A20002BFC002000F028FCB82000F02BFC0F20FD
:105A300000F022FC012000F01FFCBA2000F022FC44
:105A4000012000F019FC642000F032F80020FCF77F
:105A5000D3F90120044908604FF6FF70FCF796F96E
:105A60001FB000BDCC0000208081214210B502464D
:105A7000012000E050430B00A1F10104E1B2F9D193
:105A800010BD000008B5034800880090BDF8000074
:105A900008BD00000008006C10B50446204600F068
:105AA000F1FB052002F01CFEFFF7ECFF10BD00002B
:105AB0002DE9F0470446BE2000F0E4FB052000F08D
:105AC000DBFB204603F0E2FC07464FF066320C4B4E
:105AD00003F02CFD054603F095FC1FFA80F94846BB
